8=FIX.4.2|9=172|35=D|49=DXTRW|56=HSLTW|34=4|52=20180904-23:06:06.307|11=U1824700002|1=DEMO|21=1|100=SMART|55=MSFT|167=CS|54=1|60=20180904-23:06:06.300|38=10000|40=2|44=111.75|59=0|204=1|10=168|
8=FIX.4.2|9=189|35=8|49=HSLTW|56=DXTRW|34=4|52=20180904-23:06:06.421|11=U1824700002|76=HSLTW|20=0|150=0|39=0|1=DEMO|55=MSFT|54=1|38=10000|44=111.75|32=0|31=0|151=10000|14=0|6=0|60=20180904-23:06:06.403|10=113|
8=FIX.4.2|9=177|35=G|49=DXTRW|56=HSLTW|34=5|52=20180904-23:06:11.411|41=U1824700002|11=U1824700003|1=DEMO|21=1|55=MSFT|167=CS|54=1|60=20180904-23:06:11.411|38=10000|40=2|44=111.86|59=0|204=1|10=069|
8=FIX.4.2|9=209|35=8|49=HSLTW|56=DXTRW|34=5|52=20180904-23:06:11.424|11=U1824700003|41=U1824700002|76=HSLTW|20=0|150=5|39=5|1=DEMO|55=MSFT|54=1|38=10000|44=111.86|59=0|32=0|31=0|151=10000|14=0|6=0|60=20180904-23:06:11.424|10=066|
8=FIX.4.2|9=259|35=8|49=HSLTW|56=DXTRW|34=6|52=20180904-23:06:11.438|198=SLSXIM.U1824700003|11=U1824700003|76=HSLTW|17=HSLTW-1|20=0|150=1|39=1|1=DEMO|55=MSFT|54=1|38=10000|44=111.86|32=500|31=111.86|30=SLX|151=9500|14=500|6=111.86|60=20180904-23:06:11.438|375=SIM|9882=R|10=012|
8=FIX.4.2|9=176|35=G|49=DXTRW|56=HSLTW|34=6|52=20180904-23:06:17.760|41=U1824700003|11=U1824700004|1=DEMO|21=1|55=MSFT|167=CS|54=1|60=20180904-23:06:17.760|38=9900|40=2|44=111.86|59=0|204=1|10=066|
8=FIX.4.2|9=214|35=8|49=HSLTW|56=DXTRW|34=7|52=20180904-23:06:17.761|11=U1824700004|41=U1824700003|76=HSLTW|20=0|150=5|39=1|1=DEMO|55=MSFT|54=1|38=9900|44=111.86|59=0|32=0|31=0|151=9400|14=500|6=111.86|60=20180904-23:06:17.761|10=115|
8=FIX.4.2|9=259|35=8|49=HSLTW|56=DXTRW|34=8|52=20180904-23:06:17.761|198=SLSXIM.U1824700004|11=U1824700004|76=HSLTW|17=HSLTW-2|20=0|150=1|39=1|1=DEMO|55=MSFT|54=1|38=9900|44=111.86|32=500|31=111.86|30=SLX|151=8900|14=1000|6=111.86|60=20180904-23:06:17.761|375=SIM|9882=R|10=043|
8=FIX.4.2|9=176|35=G|49=DXTRW|56=HSLTW|34=7|52=20180904-23:06:20.193|41=U1824700004|11=U1824700005|1=DEMO|21=1|55=MSFT|167=CS|54=1|60=20180904-23:06:20.192|38=9800|40=2|44=111.86|59=0|204=1|10=055|
8=FIX.4.2|9=215|35=8|49=HSLTW|56=DXTRW|34=9|52=20180904-23:06:20.193|11=U1824700005|41=U1824700004|76=HSLTW|20=0|150=5|39=1|1=DEMO|55=MSFT|54=1|38=9800|44=111.86|59=0|32=0|31=0|151=8800|14=1000|6=111.86|60=20180904-23:06:20.193|10=152|
8=FIX.4.2|9=260|35=8|49=HSLTW|56=DXTRW|34=10|52=20180904-23:06:20.193|198=SLSXIM.U1824700005|11=U1824700005|76=HSLTW|17=HSLTW-3|20=0|150=1|39=1|1=DEMO|55=MSFT|54=1|38=9800|44=111.86|32=500|31=111.86|30=SLX|151=8300|14=1500|6=111.86|60=20180904-23:06:20.193|375=SIM|9882=R|10=063|
8=FIX.4.2|9=176|35=G|49=DXTRW|56=HSLTW|34=8|52=20180904-23:06:22.441|41=U1824700005|11=U1824700006|1=DEMO|21=1|55=MSFT|167=CS|54=1|60=20180904-23:06:22.441|38=9700|40=2|44=111.86|59=0|204=1|10=054|
8=FIX.4.2|9=216|35=8|49=HSLTW|56=DXTRW|34=11|52=20180904-23:06:22.441|11=U1824700006|41=U1824700005|76=HSLTW|20=0|150=5|39=1|1=DEMO|55=MSFT|54=1|38=9700|44=111.86|59=0|32=0|31=0|151=8200|14=1500|6=111.86|60=20180904-23:06:22.441|10=190|
8=FIX.4.2|9=260|35=8|49=HSLTW|56=DXTRW|34=12|52=20180904-23:06:22.441|198=SLSXIM.U1824700006|11=U1824700006|76=HSLTW|17=HSLTW-4|20=0|150=1|39=1|1=DEMO|55=MSFT|54=1|38=9700|44=111.86|32=500|31=111.86|30=SLX|151=7700|14=2000|6=111.86|60=20180904-23:06:22.441|375=SIM|9882=R|10=062|
8=FIX.4.2|9=145|35=F|49=DXTRW|56=HSLTW|34=9|52=20180904-23:06:26.382|41=U1824700006|11=U1824700007|1=DEMO|55=MSFT|167=CS|54=1|60=20180904-23:06:26.382|38=9700|10=232|
8=FIX.4.2|9=208|35=8|49=HSLTW|56=DXTRW|34=13|52=20180904-23:06:26.390|11=U1824700007|41=U1824700006|76=HSLTW|20=0|150=4|39=4|1=DEMO|55=MSFT|54=1|38=9700|44=111.86|32=0|31=0|151=0|14=2000|6=111.86|60=20180904-23:06:26.389|10=097|
8=FIX.4.2|9=172|35=D|49=DXTRW|56=HSLTW|34=10|52=20180904-23:06:34.044|11=U1824700008|1=DEMO|21=1|100=SMART|55=MSFT|167=CS|54=1|60=20180904-23:06:34.044|38=5000|40=2|44=111.86|59=0|204=1|10=182|
8=FIX.4.2|9=188|35=8|49=HSLTW|56=DXTRW|34=14|52=20180904-23:06:34.050|11=U1824700008|76=HSLTW|20=0|150=0|39=0|1=DEMO|55=MSFT|54=1|38=5000|44=111.86|32=0|31=0|151=5000|14=0|6=0|60=20180904-23:06:34.044|10=082|
8=FIX.4.2|9=259|35=8|49=HSLTW|56=DXTRW|34=15|52=20180904-23:06:34.051|198=SLSXIM.U1824700008|11=U1824700008|76=HSLTW|17=HSLTW-5|20=0|150=1|39=1|1=DEMO|55=MSFT|54=1|38=5000|44=111.86|32=500|31=111.86|30=SLX|151=4500|14=500|6=111.86|60=20180904-23:06:34.051|375=SIM|9882=R|10=017|
8=FIX.4.2|9=171|35=D|49=DXTRW|56=HSLTW|34=11|52=20180904-23:06:49.232|11=U1824700009|1=DEMO|21=1|100=SMART|55=CBOE|167=CS|54=1|60=20180904-23:06:49.232|38=1000|40=2|44=107.5|59=0|204=1|10=104|
8=FIX.4.2|9=187|35=8|49=HSLTW|56=DXTRW|34=16|52=20180904-23:06:49.234|11=U1824700009|76=HSLTW|20=0|150=0|39=0|1=DEMO|55=CBOE|54=1|38=1000|44=107.5|32=0|31=0|151=1000|14=0|6=0|60=20180904-23:06:49.234|10=008|
8=FIX.4.2|9=255|35=8|49=HSLTW|56=DXTRW|34=17|52=20180904-23:06:49.277|198=SLSXIM.U1824700009|11=U1824700009|76=HSLTW|17=HSLTW-6|20=0|150=2|39=2|1=DEMO|55=CBOE|54=1|38=1000|44=107.5|32=1000|31=107.5|30=SLX|151=0|14=1000|6=107.5|60=20180904-23:06:49.277|375=SIM|9882=R|10=050|
8=FIX.4.2|9=170|35=D|49=DXTRW|56=HSLTW|34=12|52=20180904-23:07:02.108|11=U182470000B|1=DEMO|21=1|100=SMART|55=CBOE|167=CS|54=5|60=20180904-23:07:02.108|38=900|40=2|44=107.5|59=0|204=1|10=061|
8=FIX.4.2|9=185|35=8|49=HSLTW|56=DXTRW|34=18|52=20180904-23:07:02.108|11=U182470000B|76=HSLTW|20=0|150=0|39=0|1=DEMO|55=CBOE|54=5|38=900|44=107.5|32=0|31=0|151=900|14=0|6=0|60=20180904-23:07:02.108|10=177|
8=FIX.4.2|9=175|35=G|49=DXTRW|56=HSLTW|34=13|52=20180904-23:07:06.782|41=U182470000B|11=U182470000C|1=DEMO|21=1|55=CBOE|167=CS|54=5|60=20180904-23:07:06.782|38=900|40=2|44=95.79|59=0|204=1|10=026|
8=FIX.4.2|9=205|35=8|49=HSLTW|56=DXTRW|34=19|52=20180904-23:07:06.782|11=U182470000C|41=U182470000B|76=HSLTW|20=0|150=5|39=5|1=DEMO|55=CBOE|54=5|38=900|44=95.79|59=0|32=0|31=0|151=900|14=0|6=0|60=20180904-23:07:06.782|10=187|
8=FIX.4.2|9=254|35=8|49=HSLTW|56=DXTRW|34=20|52=20180904-23:07:06.782|198=SLSXIM.U182470000C|11=U182470000C|76=HSLTW|17=HSLTW-7|20=0|150=1|39=1|1=DEMO|55=CBOE|54=5|38=900|44=95.79|32=600|31=95.79|30=SLX|151=300|14=600|6=95.79|60=20180904-23:07:06.782|375=SIM|9882=R|10=080|
8=FIX.4.2|9=145|35=F|49=DXTRW|56=HSLTW|34=14|52=20180904-23:07:08.657|41=U182470000C|11=U182470000D|1=DEMO|55=CBOE|167=CS|54=5|60=20180904-23:07:08.657|38=900|10=230|
8=FIX.4.2|9=204|35=8|49=HSLTW|56=DXTRW|34=21|52=20180904-23:07:08.657|11=U182470000D|41=U182470000C|76=HSLTW|20=0|150=4|39=4|1=DEMO|55=CBOE|54=5|38=900|44=95.79|32=0|31=0|151=0|14=600|6=95.79|60=20180904-23:07:08.657|10=182|
8=FIX.4.2|9=299|35=AB|49=DXTRW|56=HSLTW|34=15|52=20180904-23:07:30.204|1=DEMO|11=U182470000E|40=2|54=N/A|60=20180904-23:07:30.192|167=MLEG|44=110.7|59=0|38=10|555=2|609=CS|654=i14|600=MSFT|608=ES|623=100|624=1|609=OPT|654=i15|600=MSFT|608=OC|610=201809|611=20180907|612=111|623=1|624=2|564=O|100=SMART|109=tfrey2|10=074|
8=FIX.4.2|9=178|35=8|49=HSLTW|56=DXTRW|34=22|52=20180904-23:07:30.220|11=U182470000E|76=HSLTW|20=0|150=0|39=0|1=DEMO|55=MLEG|38=10|44=110.7|32=0|31=0|151=10|14=0|6=0|60=20180904-23:07:30.219|10=109|
8=FIX.4.2|9=181|35=8|49=HSLTW|56=DXTRW|34=23|52=20180904-23:07:30.220|11=U182470000E|76=HSLTW|20=0|150=0|39=0|1=DEMO|55=MLEG|38=1000|32=0|31=0|151=1000|14=0|6=0|60=20180904-23:07:30.219|654=i14|10=054|
8=FIX.4.2|9=177|35=8|49=HSLTW|56=DXTRW|34=24|52=20180904-23:07:30.220|11=U182470000E|76=HSLTW|20=0|150=0|39=0|1=DEMO|55=MLEG|38=10|32=0|31=0|151=10|14=0|6=0|60=20180904-23:07:30.219|654=i15|10=125|
8=FIX.4.2|9=231|35=8|49=HSLTW|56=DXTRW|34=25|52=20180904-23:07:30.252|198=SLSXIM.U182470000E|11=U182470000E|76=HSLTW|17=HSLTW-8|20=0|150=2|39=2|1=DEMO|38=1000|32=1000|31=111.805|151=0|14=1000|6=111.805|60=20180904-23:07:30.252|375=SIM|654=i14|10=089|
8=FIX.4.2|9=219|35=8|49=HSLTW|56=DXTRW|34=26|52=20180904-23:07:30.252|198=SLSXIM.U182470000E|11=U182470000E|76=HSLTW|17=HSLTW-9|20=0|150=2|39=2|1=DEMO|38=10|32=10|31=1.19|151=0|14=10|6=1.19|60=20180904-23:07:30.252|375=SIM|654=i15|10=024|
8=FIX.4.2|9=223|35=8|49=HSLTW|56=DXTRW|34=27|52=20180904-23:07:30.252|198=SLSXIM.U182470000E|11=U182470000E|76=HSLTW|17=HSLTW-10|20=0|150=2|39=2|1=DEMO|55=MLEG|38=10|44=110.7|32=10|31=0|151=0|14=10|6=0|60=20180904-23:07:30.252|375=SIM|10=200|
8=FIX.4.2|9=179|35=D|49=DXTRW|56=HSLTW|34=16|52=20180904-23:07:53.815|11=U182470000F|1=DEMO|21=1|100=SMART|55=.MSFT181019C110|167=OPT|54=2|60=20180904-23:07:53.815|38=20|40=2|44=4.1|59=0|204=1|10=119|
8=FIX.4.2|9=192|35=8|49=HSLTW|56=DXTRW|34=28|52=20180904-23:07:53.816|11=U182470000F|76=HSLTW|20=0|150=0|39=0|1=DEMO|55=.MSFT181019C110|54=2|38=20|44=4.1|32=0|31=0|151=20|14=0|6=0|60=20180904-23:07:53.816|10=075|
8=FIX.4.2|9=255|35=8|49=HSLTW|56=DXTRW|34=29|52=20180904-23:07:53.874|198=SLSXIM.U182470000F|11=U182470000F|76=HSLTW|17=HSLTW-11|20=0|150=2|39=2|1=DEMO|55=.MSFT181019C110|54=2|38=20|44=4.1|32=20|31=4.1|30=SLX|151=0|14=20|6=4.1|60=20180904-23:07:53.874|375=SIM|9882=R|10=125|
8=FIX.4.2|9=499|35=AB|49=DXTRW|56=HSLTW|34=17|52=20180904-23:08:07.358|1=DEMO|11=U182470000G|40=2|54=N/A|60=20180904-23:08:07.358|167=MLEG|44=0.67|59=0|38=10|555=4|609=OPT|654=i18|600=MSFT|608=OP|610=201809|611=20180907|612=112|623=1|624=1|564=O|609=OPT|654=i19|600=MSFT|608=OP|610=201809|611=20180907|612=111|623=1|624=2|564=O|609=OPT|654=i20|600=MSFT|608=OC|610=201809|611=20180907|612=113|623=1|624=1|564=O|609=OPT|654=i21|600=MSFT|608=OC|610=201809|611=20180907|612=114|623=1|624=2|564=O|100=SMART|109=tfrey2|10=161|
8=FIX.4.2|9=177|35=8|49=HSLTW|56=DXTRW|34=30|52=20180904-23:08:07.467|11=U182470000G|76=HSLTW|20=0|150=0|39=0|1=DEMO|55=MLEG|38=10|44=0.67|32=0|31=0|151=10|14=0|6=0|60=20180904-23:08:07.467|10=093|
8=FIX.4.2|9=177|35=8|49=HSLTW|56=DXTRW|34=31|52=20180904-23:08:07.467|11=U182470000G|76=HSLTW|20=0|150=0|39=0|1=DEMO|55=MLEG|38=10|32=0|31=0|151=10|14=0|6=0|60=20180904-23:08:07.467|654=i18|10=156|
8=FIX.4.2|9=177|35=8|49=HSLTW|56=DXTRW|34=32|52=20180904-23:08:07.472|11=U182470000G|76=HSLTW|20=0|150=0|39=0|1=DEMO|55=MLEG|38=10|32=0|31=0|151=10|14=0|6=0|60=20180904-23:08:07.467|654=i19|10=154|
8=FIX.4.2|9=177|35=8|49=HSLTW|56=DXTRW|34=33|52=20180904-23:08:07.473|11=U182470000G|76=HSLTW|20=0|150=0|39=0|1=DEMO|55=MLEG|38=10|32=0|31=0|151=10|14=0|6=0|60=20180904-23:08:07.467|654=i20|10=148|
8=FIX.4.2|9=177|35=8|49=HSLTW|56=DXTRW|34=34|52=20180904-23:08:07.473|11=U182470000G|76=HSLTW|20=0|150=0|39=0|1=DEMO|55=MLEG|38=10|32=0|31=0|151=10|14=0|6=0|60=20180904-23:08:07.467|654=i21|10=150|
8=FIX.4.2|9=222|35=8|49=HSLTW|56=DXTRW|34=35|52=20180904-23:08:07.502|198=SLSXIM.U182470000G|11=U182470000G|76=HSLTW|17=HSLTW-12|20=0|150=2|39=2|1=DEMO|38=10|32=10|31=0.845|151=0|14=10|6=0.845|60=20180904-23:08:07.502|375=SIM|654=i18|10=181|
8=FIX.4.2|9=220|35=8|49=HSLTW|56=DXTRW|34=36|52=20180904-23:08:07.502|198=SLSXIM.U182470000G|11=U182470000G|76=HSLTW|17=HSLTW-13|20=0|150=2|39=2|1=DEMO|38=10|32=10|31=0.42|151=0|14=10|6=0.42|60=20180904-23:08:07.502|375=SIM|654=i19|10=064|
8=FIX.4.2|9=220|35=8|49=HSLTW|56=DXTRW|34=37|52=20180904-23:08:07.502|198=SLSXIM.U182470000G|11=U182470000G|76=HSLTW|17=HSLTW-14|20=0|150=2|39=2|1=DEMO|38=10|32=10|31=0.25|151=0|14=10|6=0.25|60=20180904-23:08:07.502|375=SIM|654=i20|10=060|
8=FIX.4.2|9=222|35=8|49=HSLTW|56=DXTRW|34=38|52=20180904-23:08:07.502|198=SLSXIM.U182470000G|11=U182470000G|76=HSLTW|17=HSLTW-15|20=0|150=2|39=2|1=DEMO|38=10|32=10|31=0.075|151=0|14=10|6=0.075|60=20180904-23:08:07.502|375=SIM|654=i21|10=171|
8=FIX.4.2|9=222|35=8|49=HSLTW|56=DXTRW|34=39|52=20180904-23:08:07.502|198=SLSXIM.U182470000G|11=U182470000G|76=HSLTW|17=HSLTW-16|20=0|150=2|39=2|1=DEMO|55=MLEG|38=10|44=0.67|32=10|31=0|151=0|14=10|6=0|60=20180904-23:08:07.502|375=SIM|10=174|
8=FIX.4.2|9=171|35=D|49=DXTRW|56=HSLTW|34=18|52=20180904-23:08:34.539|11=U182470000H|1=DEMO|21=1|100=SMART|55=AAPL|167=CS|54=1|60=20180904-23:08:34.539|38=1000|40=2|44=228.5|59=0|204=1|10=147|
8=FIX.4.2|9=187|35=8|49=HSLTW|56=DXTRW|34=40|52=20180904-23:08:34.540|11=U182470000H|76=HSLTW|20=0|150=0|39=0|1=DEMO|55=AAPL|54=1|38=1000|44=228.5|32=0|31=0|151=1000|14=0|6=0|60=20180904-23:08:34.540|10=021|
8=FIX.4.2|9=256|35=8|49=HSLTW|56=DXTRW|34=41|52=20180904-23:08:34.578|198=SLSXIM.U182470000H|11=U182470000H|76=HSLTW|17=HSLTW-17|20=0|150=1|39=1|1=DEMO|55=AAPL|54=1|38=1000|44=228.5|32=900|31=228.5|30=SLX|151=100|14=900|6=228.5|60=20180904-23:08:34.578|375=SIM|9882=R|10=160|
8=FIX.4.2|9=169|35=D|49=DXTRW|56=HSLTW|34=20|52=20180904-23:09:30.009|11=U182470000I|1=DEMO|21=1|100=SMART|55=FB|167=CS|54=1|60=20180904-23:09:30.009|38=500|40=2|44=171.29|59=0|204=1|10=239|
8=FIX.4.2|9=184|35=8|49=HSLTW|56=DXTRW|34=43|52=20180904-23:09:30.009|11=U182470000I|76=HSLTW|20=0|150=0|39=0|1=DEMO|55=FB|54=1|38=500|44=171.29|32=0|31=0|151=500|14=0|6=0|60=20180904-23:09:30.009|10=085|
8=FIX.4.2|9=256|35=8|49=HSLTW|56=DXTRW|34=44|52=20180904-23:09:30.067|198=SLSXIM.U182470000I|11=U182470000I|76=HSLTW|17=HSLTW-18|20=0|150=1|39=1|1=DEMO|55=FB|54=1|38=500|44=171.29|32=300|31=171.29|30=SLX|151=200|14=300|6=171.29|60=20180904-23:09:30.067|375=SIM|9882=R|10=094|
8=FIX.4.2|9=174|35=G|49=DXTRW|56=HSLTW|34=21|52=20180904-23:09:39.233|41=U182470000I|11=U182470000J|1=DEMO|21=1|55=FB|167=CS|54=1|60=20180904-23:09:39.233|38=600|40=2|44=171.29|59=0|204=1|10=178|
8=FIX.4.2|9=211|35=8|49=HSLTW|56=DXTRW|34=45|52=20180904-23:09:39.234|11=U182470000J|41=U182470000I|76=HSLTW|20=0|150=5|39=1|1=DEMO|55=FB|54=1|38=600|44=171.29|59=0|32=0|31=0|151=300|14=300|6=171.29|60=20180904-23:09:39.234|10=174|
8=FIX.4.2|9=254|35=8|49=HSLTW|56=DXTRW|34=46|52=20180904-23:09:39.234|198=SLSXIM.U182470000J|11=U182470000J|76=HSLTW|17=HSLTW-19|20=0|150=2|39=2|1=DEMO|55=FB|54=1|38=600|44=171.29|32=300|31=171.29|30=SLX|151=0|14=600|6=171.29|60=20180904-23:09:39.234|375=SIM|9882=R|10=015|
8=FIX.4.2|9=169|35=D|49=DXTRW|56=HSLTW|34=22|52=20180904-23:09:46.194|11=U182470000K|1=DEMO|21=1|100=SMART|55=FB|167=CS|54=1|60=20180904-23:09:46.194|38=900|40=2|44=171.29|59=0|204=1|10=015|
8=FIX.4.2|9=184|35=8|49=HSLTW|56=DXTRW|34=47|52=20180904-23:09:46.194|11=U182470000K|76=HSLTW|20=0|150=0|39=0|1=DEMO|55=FB|54=1|38=900|44=171.29|32=0|31=0|151=900|14=0|6=0|60=20180904-23:09:46.194|10=123|
8=FIX.4.2|9=256|35=8|49=HSLTW|56=DXTRW|34=48|52=20180904-23:09:46.194|198=SLSXIM.U182470000K|11=U182470000K|76=HSLTW|17=HSLTW-20|20=0|150=1|39=1|1=DEMO|55=FB|54=1|38=900|44=171.29|32=300|31=171.29|30=SLX|151=600|14=300|6=171.29|60=20180904-23:09:46.194|375=SIM|9882=R|10=119|
